:020000040800F2
:10000000D8040020A101000807170008A113000868
:100010000517000865040008BD170008000000006F
:100020000000000000000000000000000B170008A6
:100030001905000800000000091700080D17000846
:10004000BB010008BB010008BB010008BB010008A0
:10005000BB010008BB0100081D050008BB0100082A
:10006000BB010008BB010008BB010008BB01000880
:10007000BB010008BB010008BB010008BB01000870
:10008000BB010008BB010008BB010008BB01000860
:10009000BB010008BB010008BB010008BB01000850
:1000A000BB010008BB010008BB010008BB01000840
:1000B000BB010008BB010008BB010008BB01000830
:1000C000BB010008BB010008BB010008BB01000820
:1000D000BB010008BB010008BB010008BB01000810
:1000E000BB010008BB010008BB010008BB01000800
:1000F000BB010008BB010008BB010008BB010008F0
:10010000BB010008BB010008BB010008BB010008DF
:10011000BB010008BB010008BB010008BB010008CF
:10012000BB010008BB010008BB010008BB010008BF
:1001300069040008BB010008BB010008BB010008FE
:10014000BB010008BB010008BB010008BB0100089F
:10015000BB010008BB010008BB010008BB0100088F
:10016000BB010008BB010008BB010008BB0100087F
:10017000BB010008BB010008BB0100080000000033
:10018000BB010008BB010008DFF810D000F07CF8CC
:1001900000480047FD170008AFF30080D804002096
:1001A0000648804706480047FEE7FEE7FEE7FEE711
:1001B000FEE7FEE7FEE7FEE7FEE7FEE7A117000821
:1001C000890100082DE9F05F0546002092469B4614
:1001D00088460646814640241BE02846414647465D
:1001E000224600F041F853465A46C01A914110D3B6
:1001F00011461846224600F028F82D1A67EB010830
:100200004F4622460120002100F01FF817EB00099D
:100210004E41201EA4F10104DFDC484631462A4647
:100220004346BDE8F09FD2B201E000F8012B491E21
:10023000FBD270470022F6E710B513460A46044683
:100240001946FFF7F0FF204610BD202A04DB203AB4
:1002500000FA02F1002070479140C2F1200320FA19
:1002600003F3194390407047202A04DB203A21FA17
:1002700002F00021704721FA02F3D040C2F12002BF
:100280009140084319467047064C074D06E0E06868
:1002900040F0010394E8070098471034AC42F6D3CD
:1002A000FFF776FF501800087018000810B50146D7
:1002B000806B026C12F0500F05D0026CD20626D56E
:1002C00000F0E6F910BD016C41F4007101640168B1
:1002D0008A6812F0405F17D1027EAAB9CA6A12F486
:1002E000700F02D08A6852050ED44A6822F02002AC
:1002F0004A60016C21F480710164016CC90403D46B
:10030000016C41F00101016400F0C0F910BD806B87
:10031000C26CBDE810400846104710B5806B402104
:100320000164416C41F00401416400F0B1F910BD79
:1003300010B5806B00F0ABF910BD0000464910B558
:100340004A6822F440324A604A6843681A434A6065
:1003500001684A6822F480724A6001684A68036949
:1003600042EA03224A6001684A6822F040724A6009
:1003700001684A6883681A434A6001688A6822F4FF
:1003800000628A6001688A68C3681A438A60816A69
:100390006FF07062D14201688A6822F070628A60F0
:1003A00001688A680CD0836A1A438A6001688A6887
:1003B00022F040528A6001688A68C36A1A4301E0E9
:1003C00022F040528A6001688A6822F002028A6044
:1003D00001688A68037E42EA43028A6090F820102E
:1003E000002901684A680FD042F400624A6001683F
:1003F0004A6822F460424A6001684A68174C436ABE
:1004000004EB43331A4301E022F400624A600168BE
:10041000CA6A22F47002CA620168CA6A838B104CED
:1004200004EB03531A43CA6201688A6822F400721B
:100430008A6001688A6890F8303042EA43228A6014
:1004400001688A6822F480628A6001688A6840696B
:1004500042EA8020886010BD0023014000E0FFFFD9
:100460000000F0FFFEE70000014800F00BBA0000BA
:100470005800002001681823CAB2103AB2FBF3F208
:10048000054B6FF30901032A9B5CC36500D9091D65
:1004900081650846704700003818000810B501460D
:1004A00000208B698A6A4FF0C07453B1B3F5005FC6
:1004B00015D072B1012A0CD0022A0AD0032A09D120
:1004C00004E01AB1012A06D0022A03D1C96AC9017F
:1004D00000D5012010BDC96AA142FAD010BD002A82
:1004E000F7D0012AF2D0022AF3D0032AF3D010BDAC
:1004F00030B50468256825F48025256004686360AC
:100500008368402B036803D099600068C26030BDE7
:100510009A600068C16030BD7047000010B51022BD
:100520000449054800F016F9BDE81040012000F02C
:100530001BBB0000B80000201000002072B6FEE7D0
:1005400078B50024009490F83C20012A19D00122AB
:1005500080F83C200A6807230568092A13D9EE6849
:100560000A3A02EB420293409E43EE600B788A689F
:100570000A3B03EB43039A400368DD682A43DA60D1
:1005800010E0022078BD2E6902EB420293409E43A8
:100590002E610B788A6803EB43039A4003681D6958
:1005A0002A431A614A681F23072A13D205686E6B13
:1005B000521E02EB820293409E436E630B790A88BF
:1005C0005B1E92B203EB83039A4003685D6B2A4380
:1005D0005A6327E005680D2A12D22E6BD21F02EB58
:1005E000820293409E432E630B790A88DB1F92B2EE
:1005F00003EB83039A4003681D6B2A431A6311E0DF
:10060000EE6A0D3A02EB820293409E43EE620B7952
:100610000A880D3B92B203EB83039A400368DD6ABC
:100620002A43DA62164B0568144A9D4206D10D68CA
:10063000122D03D1556845F48005556005689D422B
:1006400018D10B68102B01D0112B13D1536843F430
:1006500000035360096810290CD10A490A4A096845
:10066000B1FBF2F101EB8101490000E0491E00916C
:100670000029FBD180F83C40002078BD00230140D8
:10068000002001400C00002040420F0070477047DE
:10069000704770B504004FF0000503D0206C0026B1
:1006A00010B107E0012070BD204600F01DF866641F
:1006B00084F83C60206CC00610D4206C20F4885074
:1006C00040F0020020642046FFF738FE6664206C8C
:1006D00020F0020040F00100206400E0012584F8D1
:1006E0003C60284670BD000038B5054600681549D5
:1006F000884225D114480021026842F480720260C9
:100700000068134C00F4807000901048C4E90001A8
:100710000015A160C4E90310400060618000C4E9D5
:1007200006010420C4E908100320C4E90A01204698
:10073000216300F077F908B1FFF700FFAC63A56310
:1007400038BD00000020014044380240706402407F
:1007500058000020F8B50E4600210446009190F89C
:100760003C00012807D0012084F83C002068836801
:10077000DB0702D011E00220F8BD836843F00103DB
:1007800083603748374B0068B0FBF3F000EB400064
:1007900000E0401E00900028FBD120688368DB0742
:1007A0005CD0236C40F20165AB4343F48073236457
:1007B0004068400505D5206C20F4005040F480507E
:1007C0002064206CC00404D5606C20F006006064D6
:1007D00000E0616484F83C10A16B2448224DC8639A
:1007E000A16B23480864A16B2248C86421686FF09C
:1007F000220008602068416841F080614160206803
:10080000816841F4807181602168134632464C3121
:10081000A06B00F071F968681749C006206806D01F
:1008200088421BD1816811F0405F13D016E08842E6
:10083000F8D0124A904203D1D1F80423D206F1D065
:100840000F4A90420AD1D1F8041301F01F01102978
:10085000E8D303E0816841F0804181600020F8BD69
:100860000C00002040420F0000230140AD020008B0
:10087000310300081B030008002001400021014053
:10088000002201402DE9F84304464FF00009CDF85D
:10089000009063484FF41651A56D0068B0FBF1F766
:1008A0002E6894F85C10082000FA01F131420FD054
:1008B00021680A6852070BD50A6822F004020A6010
:1008C00094F85C108840A860606D40F0010060659D
:1008D00094F85C104FF0010808FA01F0304208D09B
:1008E00021684969090604D5A860606D40F00200DE
:1008F000606594F85C1004208840304208D021687C
:100900000968890704D5A860606D40F0040060653F
:1009100094F85C1010208840304218D02168096893
:10092000090714D5A86020680168490304D5006848
:10093000000308D5A16C07E00168C90503D401686C
:1009400021F008010160216C09B12046884794F824
:100950005C1020208840304231D021680968C906E7
:100960002DD5A86094F8350005282068016806D0C8
:10097000490347D5006800031DD4616C1CE021F0D9
:10098000160101602068416921F080014161206CFD
:1009900008B9A06C20B12068016821F0080101604D
:1009A00094F85C103F208840A86084F8349084F864
:1009B0003580216D1FE0E16B09B120468847606DED
:1009C00000282BD0606DC00714D0052084F83500B6
:1009D0002068016821F0010101600098401C00902E
:1009E000B84203D820680068C007F6D184F8349074
:1009F00084F83580E16C002910D001B02046BDE8B4
:100A0000F04308470168C905D5D4016821F01001F9
:100A1000016084F8349084F83580CCE7BDE8F88331
:100A20000C0000202DE9F041044600F08BF9064649
:100A30005CB1002584F83450022084F83500206829
:100A4000016821F0010101600DE00120BDE8F081A5
:100A500000F078F9801B052805D920206065032067
:100A600084F83500F2E720680068C007F0D12268FA
:100A7000116820480140D4E901031843D4E9033642
:100A80003343184363691843A3691843E369184360
:100A9000236A18430843616A042903D1D4E90B137C
:100AA00019430843106020684069666A20F0070116
:100AB00030460E43012704280CD1A06A0643E06AA1
:100AC00040B12046FFF7EAFC20B14020606584F881
:100AD0003570BAE7206846612046FFF7CBFC94F8F2
:100AE0005C203F2191408160656584F8357000206D
:100AF000ACE700003F8010F02DE9F0410446866D20
:100B000090F83400002501280DD0012084F834002D
:100B100094F835700020012F07D084F834000225A6
:100B20002846BDE8F0810220FBE7022784F83570F3
:100B300060652046FFF7DCFC94F85C103F2088409D
:100B4000B0602068016841F016010160206C20B19E
:100B50002068016841F0080101602068016841F0E7
:100B600001010160DCE77047044910B50A680242E0
:100B700002D00860FFF7F7FF10BD0000143C0140F1
:100B80002DE9F84F00224FF0010803254FF00F0E1A
:100B90000B6808FA02F42340A3426ED14E68012E7E
:100BA00005D0022E03D0112E01D0122E12D186684C
:100BB0004FEA420C05FA0CF7BE43CF6807FA0CF770
:100BC000374387604668A6430C79C4F30014944009
:100BD00034434460C668570005FA07FC8C6826EA6F
:100BE0000C06BC403443C4604C68022C01D0122C6B
:100BF00013D1D40800EB8404A346D4F82090540702
:100C00004FEAD46A0EFA0AF629EA06090E6906FACC
:100C10000AF646EA0906CBF8206006680C7926EA4F
:100C20000C0604F00304BC40344304604C68E40048
:100C300065D5364C266846F480462660246822F046
:100C4000030604F480440094314C3444A446D4F8A0
:100C500008489607370F0EFA07F6B4432D4EB042F8
:100C600001D1002624E02C4EB04201D101261FE024
:100C70002A4EB04202D102261AE040E0284EB0428D
:100C800001D1032614E0274EB04201D104260FE023
:100C9000254EB04201D105260AE0244EB04201D1D2
:100CA000062605E0224EB04201D1072600E00826C4
:100CB000BE402643CCF808681E4E34684F689C43FB
:100CC000FF0300D51C4334601A4C241D26684F686E
:100CD0009E43BF0300D51E432660164E0836346877
:100CE0004F689C43FF0200D51C433460114E0C3604
:100CF00034684F689C43BF0200D51C433460521CCB
:100D0000102AFFF445AFBDE8F88F000044380240D8
:100D10000030014000000240000402400008024090
:100D2000000C024000100240001402400018024073
:100D3000001C0240003C01400AB181617047090477
:100D4000FBE70000014880687047000000000020B9
:100D500002488168027811448160704700000020D9
:100D60000B4810B5016841F400710160016841F45D
:100D700080610160016841F480710160032000F02E
:100D800071F8002000F006F800F024F8002010BDF3
:100D9000003C024070B50D4D04464FF47A7128783E
:100DA000B1FBF0F00A490968B1FBF0F000F0E4FA99
:100DB00048B9102C07D200222146501E00F032F80C
:100DC00000206C6070BD012070BD0000000000209C
:100DD0000C0000200B4882B0016841F480410160A2
:100DE000006800F4804000900648001F016841F050
:100DF00080510160006800F080500090072002B030
:100E000000F030B844380240002809DB00F01F022F
:100E1000012191404009800000F1E020C0F800115C
:100E200070470000F0B40E4B1B680C46C3F302235E
:100E3000C3F10705042D00D90425191D072901D286
:100E4000002300E0DB1E012606FA05F1491E2140C1
:100E500099409E40761E16403143F0BC00F0AFBC76
:100E60000CED00E0064900F0070208684FF6FF03AA
:100E7000184040EA0220034A10430860704700000F
:100E80000CED00E00000FA052DE9F0470E460500E4
:100E900065D0DFF81481D8F80000F7B200F00F0039
:100EA000B04207D288F80070D8F8000000F00F00B8
:100EB000B04254D128683D4C810712D5400703D574
:100EC000206840F4E05020602878000703D52068AF
:100ED00040F4604020602068A96820F0F0000843DA
:100EE00020602878C0072DD030496868083901286B
:100EF00012D0022813D0032811D0096889070029CD
:100F00002DDA216821F0030101432160FFF71AFF68
:100F1000814641F2883A0EE009688903EFE70968E3
:100F20008901ECE7FFF70EFFA0EB0901514502D95B
:100F30000320BDE8F0872068696800F00C00B0EB82
:100F4000810FEFD1D8F80010404601F00F01B142F7
:100F500007D90770006800F00F00B04201D00120EF
:100F6000E7E72878400705D52068E96820F4E050D5
:100F7000084320602878000706D52068296920F4F6
:100F8000604040EAC100206000F018F82168084A7B
:100F9000C1F30311515CC840064908600648006867
:100FA000FFF7F8FE0020C4E7003C0240083802408A
:100FB000401800080C00002004000020154810B55F
:100FC000006810F00C02144813D04110042A0FD00E
:100FD000082A0ED10F4C241F2268236802F03F021A
:100FE0005B0207D52068C0F38810A0FB010106E072
:100FF000084610BD2168C1F38811A1FB0001002340
:10100000FFF7E0F82168C1F30141491C4900B0FB3A
:10101000F1F010BD083802400024F4002DE9F84F2B
:1010200004006ED02078DFF83C93C007A9F10405D6
:101030004AD009F104000168C1F38101012908D0F7
:101040000068C0F3810002280AD1D9F800004002EC
:1010500006D52868800337D560680028E1D033E0E2
:101060006068B0F5803F10D0B0F5A02F286810D090
:1010700020F480302860286820F480202860606890
:10108000A8B1FFF75FFE06460DE0286840F4803007
:10109000F4E740F480202860F7E700BFFFF752FE36
:1010A000801B642873D828688003F7D50CE0FFF70D
:1010B00049FE064605E000BFFFF744FE801B64289A
:1010C000F0D828688003F7D42078DFF89C82800766
:1010D0004FF0000A3ED5A348001D016811F00C0F27
:1010E00008D00068C0F3810002280BD1D9F80000B5
:1010F000400207D42868800716D5E068012800D18F
:1011000012E02BE1E068B8B10120C8F80000FFF759
:1011100019FE064605E000BFFFF714FE801B0228FB
:10112000C0D828688007F7D52868216920F0F80022
:1011300040EAC10028600DE0C8F800A0FFF702FEF9
:10114000064604E0FFF7FEFD801B02281FD8286832
:101150008007F7D42078000722D5824E8348616942
:10116000703671B101210160FFF7ECFD074604E024
:10117000FFF7E8FDC01B022809D830688007F7D5C3
:101180000EE0C0F800A0FFF7DDFD074605E082E0B5
:10119000FFF7D8FDC01B02287DD830688007F7D440
:1011A0002078400768D5DFF8BCB100270BF13C0B75
:1011B000DBF80000C0000BD4DBF8001041F08051D8
:1011C000CBF80010DBF80000012700F08050009001
:1011D000674E3068C00510D4306840F480703060CD
:1011E000FFF7B0FD009005E0FFF7ACFD0099401A55
:1011F000022850D83068C005F6D55A4EA0686C3623
:1012000001280FD00528306810D020F00100306090
:10121000306820F004003060A068B8B1FFF792FD9C
:1012200000900FE0306840F00100F4E740F0040067
:101230003060F7E7FFF786FD0099411A41F28830E8
:10124000814266D830688007F4D50EE0FFF77AFD5A
:10125000009007E0FFF776FD0099411A41F28830CF
:10126000814256D830688007F4D42FB1DBF80010E3
:1012700021F08051CBF80010A069C8B33949091D8D
:101280000968C1F3810102294AD00228504607D0DB
:10129000C8F8600000E03CE0FFF754FD04463BE086
:1012A0004746C8F86000FFF74DFD064605E000BF61
:1012B000FFF748FD801B02282BD828688001F7D44F
:1012C000D4E907010843A16A2A4A490802EB01410F
:1012D000626A41EA8211084394F82C1040EA0161E5
:1012E000C9F8001001203866FFF72CFD044606E01F
:1012F00036E000BFFFF726FD001B022809D828684A
:101300008001F7D52CE000BFFFF71CFD001B022871
:1013100002D90320BDE8F88F28688001F4D41FE0CB
:101320000128F7D0D9F80000E26900F48001914269
:1013300014D1226A00F03F0191420FD147F6C071EB
:10134000626A0140914209D1A26A00F4403191429F
:1013500004D1E16A00F07060884201D00120D9E731
:101360000020D7E70438024000004742800E474281
:10137000007000400000FFFF10B5401EB0F1807FFC
:1013800001D3012010BD4FF0E02460610F216017F0
:1013900000F015FA0020A06107202061002010BD98
:1013A000FEE700007FB500245748009401940294A2
:1013B00054490394C0E90014012505618460057651
:1013C00080F820405149C0E90A141026C661C46063
:1013D00080F830504561FFF75CF908B172B6FEE75E
:1013E0000096CDE9015469464748FFF7A9F808B1CE
:1013F00072B6FEE70220019069464348FFF7A0F865
:1014000008B172B6FEE70320019069463E48FFF737
:1014100097F808B172B6FEE70420019069463A4891
:10142000FFF78EF808B172B6FEE705200190694615
:101430003548FFF785F808B172B6FEE7062001903F
:1014400069463148FFF77CF808B172B6FEE707201D
:10145000019069462C48FFF773F808B172B6FEE7B1
:101460000820019069462848FFF76AF808B172B66B
:10147000FEE70920019069462348FFF761F808B1AB
:1014800072B6FEE70A20019069461F48FFF758F838
:1014900008B172B6FEE70B20019069461A48FFF7C3
:1014A0004FF808B172B6FEE70C2001906946164865
:1014B000FFF746F808B172B6FEE70D2001906946C5
:1014C0001148FFF73DF808B172B6FEE70E20019013
:1014D00069460D48FFF734F808B172B6FEE70F20F1
:1014E000019069460848FFF72BF808B172B6FEE78D
:1014F000694605480196FFF723F8002801D072B627
:10150000FEE77FBD00200140100000200100000F19
:101510002DE9F04F87B014216846FEF78BFE714825
:101520000024016841F010010160016801F0100120
:101530000591016841F004010160016801F00401B6
:101540000591016841F080010160016801F08001AE
:101550000591016841F001010160016801F001019C
:101560000591016841F002010160016801F002018A
:101570000591016841F0080101600068002200F057
:101580000800059008215848FFF7D6FB01221146B4
:101590005648FFF7D1FB4FF2100A0022514654483B
:1015A000FFF7CAFB082501260095CDE901646946CD
:1015B0004D480394FFF7E4FA0096CDE901646946CB
:1015C0004A480394FFF7DCFA00950225CDE901545F
:1015D0000527CDE9034769464448FFF7D1FA454856
:1015E0000096CDE90104DFF810B169465846FFF7CF
:1015F000C7FA10200090CDE901544FF00608CDE95C
:10160000034869465846FFF7BBFAE0200090CDE951
:101610000154CDE9034769465846FFF7B1FA4FF048
:101620000409CDE90094694634480294FFF7A8FA0A
:1016300068020090CDE90154CDE9034769462F487F
:10164000FFF79EFACDF800A0CDE90164694628486D
:101650000394FFF795FA4FF4A4500090CDE901549C
:10166000CDE9034869462148FFF78AFA2802CDE907
:101670000004694658460294FFF782FA4FF4E0509E
:101680000090CDE901540A20CDE90340694658464F
:10169000FFF776FA2020CDE9000469461448029449
:1016A000FFF76EFA4FF4107000901220CDE901069A
:1016B000CDE9034969461148FFF762FA10480095E1
:1016C000CDE9010469460848FFF75AFA002211469D
:1016D0000620FFF7A7FB0620FFF796FB07B0BDE843
:1016E000F08F000030380240001002400008024035
:1016F000000C0240000011100000024000040240F3
:1017000000001210FEE7FEE770477047FFF720BBAE
:1017100030B593B030216846FEF78CFD14210CA83B
:10172000FEF788FD1C480025016841F080510160EA
:10173000006800F0805011901848016841F4804121
:1017400001600068022400F48040119001200390A1
:1017500010200490009406940820CDE907505420EE
:10176000CDE9090407200B906846FFF757FC08B144
:1017700072B6FEE70CA90F2081E831004FF48050CB
:101780000F90109002210CA8FFF77EFB002801D0DB
:1017900072B6FEE713B030BD403802400070004022
:1017A0000548016841F47001016003494FF0006091
:1017B000803908607047000088ED00E0FEE7090707
:1017C000090E002804DB00F1E02080F800147047C7
:1017D00000F00F0000F1E02080F8141D704702E0D7
:1017E00008C8121F08C1002AFAD1704770470020AC
:1017F00001E001C1121F002AFBD1704708B5FFF7B5
:10180000AFFAFFF785FFFFF783FE0A48016841F44E
:10181000800101600068002200F480000090114601
:101820003C20FFF7FFFA3C20FFF7EEFAFFF7BAFD86
:10183000FEE70000303802400006101600061016C1
:101840000000000000000000010203040607080970
:10185000701800080000002010000000DE170008CB
:101860008018000810000020C8040000EE170008CF
:101870000100000010000000000000000024F4003F
:040000050800018965
:00000001FF
