:020000040800F2
:10000000E8040020A1010008771200087D10000814
:1000100075120008AD020008051500080000000078
:100020000000000000000000000000007B1200083B
:100030006103000800000000791200087D1200082A
:10004000BB010008BB010008BB010008BB010008A0
:10005000BB010008BB01000865030008BB010008E4
:10006000BB010008BB010008BB010008BB01000880
:10007000BB010008BB010008BB010008BB01000870
:10008000BB010008B1020008BB010008BB01000869
:10009000BB010008BB010008BB010008BB01000850
:1000A000BB010008BB010008BB010008BB01000840
:1000B000BB010008BB010008BB010008BB01000830
:1000C000BB010008BB010008BB010008BB01000820
:1000D000BB010008BB010008BB010008BB01000810
:1000E000BB010008BB010008BB010008BB01000800
:1000F000BB010008BB010008BB010008BB010008F0
:10010000BB010008BB010008BB010008BB010008DF
:10011000BB010008BB010008BB010008BB010008CF
:10012000BB010008BB010008BB010008BB010008BF
:10013000BB010008BB010008BB010008BB010008AF
:10014000BB010008BB010008BB010008BB0100089F
:10015000BB010008BB010008BB010008BB0100088F
:10016000BB010008BB010008BB010008BB0100087F
:10017000BB010008BB010008BB0100080000000033
:10018000BB010008BB010008DFF810D000F07CF8CC
:100190000048004745150008AFF30080E804002040
:1001A0000648804706480047FEE7FEE7FEE7FEE711
:1001B000FEE7FEE7FEE7FEE7FEE7FEE711130008B5
:1001C000890100082DE9F05F0546002092469B4614
:1001D00088460646814640241BE02846414647465D
:1001E000224600F041F853465A46C01A914110D3B6
:1001F00011461846224600F028F82D1A67EB010830
:100200004F4622460120002100F01FF817EB00099D
:100210004E41201EA4F10104DFDC484631462A4647
:100220004346BDE8F09FD2B201E000F8012B491E21
:10023000FBD270470022F6E710B513460A46044683
:100240001946FFF7F0FF204610BD202A04DB203AB4
:1002500000FA02F1002070479140C2F1200320FA19
:1002600003F3194390407047202A04DB203A21FA17
:1002700002F00021704721FA02F3D040C2F12002BF
:100280009140084319467047064C074D06E0E06868
:1002900040F0010394E8070098471034AC42F6D3CD
:1002A000FFF776FFC8150008E8150008FEE7000014
:1002B000014800F06DB80000880000200168182394
:1002C000CAB2103AB2FBF3F2054B6FF30901032AED
:1002D0009B5CC36500D9091D816508467047000015
:1002E000A815000810B5014600208B698A6A4FF0F6
:1002F000C07453B1B3F5005F15D072B1012A0CD0B0
:10030000022A0AD0032A09D104E01AB1012A06D030
:10031000022A03D1C96AC90100D5012010BDC96AEA
:10032000A142FAD010BD002AF7D0012AF2D0022A49
:10033000F3D0032AF3D010BD30B50468256825F446
:1003400080252560046863608368402B036803D0C0
:1003500099600068C26030BD9A600068C16030BDBD
:1003600070470000064810B50088064982B206486A
:1003700000F042FEBDE81040012000F07BB9000013
:1003800034000020000000204800002072B6FEE784
:100390002DE9F84304464FF00009CDF8009063487A
:1003A0004FF41651A56D0068B0FBF1F72E6894F874
:1003B0005C10082000FA01F131420FD021680A6870
:1003C00052070BD50A6822F004020A6094F85C1008
:1003D0008840A860606D40F00100606594F85C1092
:1003E0004FF0010808FA01F0304208D0216849694D
:1003F000090604D5A860606D40F00200606594F8BD
:100400005C1004208840304208D0216809688907C0
:1004100004D5A860606D40F00400606594F85C103D
:1004200010208840304218D021680968090714D587
:10043000A86020680168490304D50068000308D556
:10044000A16C07E00168C90503D4016821F0080127
:100450000160216C09B12046884794F85C10202087
:100460008840304231D021680968C9062DD5A8607E
:1004700094F8350005282068016806D0490347D55F
:10048000006800031DD4616C1CE021F016010160BE
:100490002068416921F080014161206C08B9A06C9D
:1004A00020B12068016821F00801016094F85C1017
:1004B0003F208840A86084F8349084F83580216D0E
:1004C0001FE0E16B09B120468847606D00282BD002
:1004D000606DC00714D0052084F8350020680168DD
:1004E00021F0010101600098401C0090B84203D83F
:1004F00020680068C007F6D184F8349084F835800D
:10050000E16C002910D001B02046BDE8F043084757
:100510000168C905D5D4016821F01001016084F893
:10052000349084F83580CCE7BDE8F883440000209F
:100530002DE9F041044600F08BF906465CB1002538
:1005400084F83450022084F835002068016821F0D6
:10055000010101600DE00120BDE8F08100F078F9B3
:10056000801B052805D920206065032084F835000C
:10057000F2E720680068C007F0D1226811682048BF
:100580000140D4E901031843D4E903363343184347
:1005900063691843A3691843E3691843236A18433E
:1005A0000843616A042903D1D4E90B1319430843B2
:1005B000106020684069666A20F0070130460E43EB
:1005C000012704280CD1A06A0643E06A40B1204606
:1005D000FFF788FE20B14020606584F83570BAE7E7
:1005E000206846612046FFF769FE94F85C203F21B1
:1005F00091408160656584F835700020ACE70000AB
:100600003F8010F02DE9F0410446866D90F83400EB
:10061000002501280DD0012084F8340094F83570AD
:100620000020012F07D084F8340002252846BDE8B9
:10063000F0810220FBE7022784F8357060652046D0
:10064000FFF77AFE94F85C103F208840B060206885
:10065000016841F016010160206C20B1206801683A
:1006600041F0080101602068016841F0010101606A
:10067000DCE77047044910B50A68024202D00860FE
:10068000FFF7F7FF10BD0000143C01402DE9F84FC3
:1006900000224FF0010803254FF00F0E0B6808FAF7
:1006A00002F42340A3426ED14E68012E05D0022EE3
:1006B00003D0112E01D0122E12D186684FEA420CBF
:1006C00005FA0CF7BE43CF6807FA0CF7374387608B
:1006D0004668A6430C79C4F3001494403443446044
:1006E000C668570005FA07FC8C6826EA0C06BC4071
:1006F0003443C4604C68022C01D0122C13D1D408AE
:1007000000EB8404A346D4F8209054074FEAD46A3F
:100710000EFA0AF629EA06090E6906FA0AF646EA08
:100720000906CBF8206006680C7926EA0C0604F06E
:100730000304BC40344304604C68E40065D5364C87
:10074000266846F480462660246822F0030604F4F6
:1007500080440094314C3444A446D4F808489607A9
:10076000370F0EFA07F6B4432D4EB04201D10026E2
:1007700024E02C4EB04201D101261FE02A4EB042A7
:1007800002D102261AE040E0284EB04201D10326F1
:1007900014E0274EB04201D104260FE0254EB042AE
:1007A00001D105260AE0244EB04201D1062605E01B
:1007B000224EB04201D1072600E00826BE40264363
:1007C000CCF808681E4E34684F689C43FF0300D580
:1007D0001C4334601A4C241D26684F689E43BF0397
:1007E00000D51E432660164E083634684F689C4379
:1007F000FF0200D51C433460114E0C3634684F683C
:100800009C43BF0200D51C433460521C102AFFF4E5
:1008100045AFBDE8F88F0000443802400030014089
:10082000000002400004024000080240000C0240A8
:10083000001002400014024000180240001C024058
:10084000003C01400AB1816170470904FBE70000E8
:100850000148806870470000380000200248816825
:100860000278114481607047380000200B4810B5B1
:10087000016841F400710160016841F48061016028
:10088000016841F480710160032000F071F80020DC
:1008900000F006F800F024F8002010BD003C0240F3
:1008A00070B50D4D04464FF47A712878B1FBF0F025
:1008B0000A490968B1FBF0F000F004FB48B9102CBC
:1008C00007D200222146501E00F032F800206C6052
:1008D00070BD012070BD00003800002044000020E1
:1008E0000B4882B0016841F480410160006800F467
:1008F000804000900648001F016841F0805101606F
:10090000006800F080500090072002B000F030B87E
:1009100044380240002809DB00F01F020121914009
:100920004009800000F1E020C0F80011704700008D
:10093000F0B40E4B1B680C46C3F30223C3F107054A
:10094000042D00D90425191D072901D2002300E038
:10095000DB1E012606FA05F1491E214099409E4002
:10096000761E16403143F0BC00F0CDBD0CED00E02A
:10097000064900F0070208684FF6FF03184040EAF6
:100980000220034A10430860704700000CED00E0AD
:100990000000FA052DE9F0470E46050065D0DFF8A6
:1009A0001481D8F80000F7B200F00F00B04207D26F
:1009B00088F80070D8F8000000F00F00B04254D161
:1009C00028683D4C810712D5400703D5206840F4C4
:1009D000E05020602878000703D5206840F460408C
:1009E00020602068A96820F0F00008432060287883
:1009F000C0072DD0304968680839012812D0022874
:100A000013D0032811D00968890700292DDA21683D
:100A100021F0030101432160FFF71AFF814641F2F3
:100A2000883A0EE009688903EFE709688901ECE775
:100A3000FFF70EFFA0EB0901514502D90320BDE8E5
:100A4000F0872068696800F00C00B0EB810FEFD1EF
:100A5000D8F80010404601F00F01B14207D90770E5
:100A6000006800F00F00B04201D00120E7E72878CD
:100A7000400705D52068E96820F4E050084320606D
:100A80002878000706D52068296920F4604040EAEC
:100A9000C100206000F038F82168084AC1F3031152
:100AA000515CC8400649086006480068FFF7F8FE38
:100AB0000020C4E7003C024008380240B01500089E
:100AC000440000203C0000200448054900680968F3
:100AD000044AC1F38221515CC840704744000020A1
:100AE00008380240C0150008044805490068096834
:100AF000044AC1F34231515CC840704744000020B1
:100B000008380240C0150008154810B5006810F0FC
:100B10000C02144813D04110042A0FD0082A0ED119
:100B20000F4C241F2268236802F03F025B0207D5A6
:100B30002068C0F38810A0FB010106E0084610BD44
:100B40002168C1F38811A1FB00010023FFF73AFBE4
:100B50002168C1F30141491C4900B0FBF1F010BD0F
:100B6000083802400024F4002DE9F84F04006ED04C
:100B70002078DFF83C93C007A9F104054AD009F1B9
:100B800004000168C1F38101012908D00068C0F3A5
:100B9000810002280AD1D9F80000400206D5286851
:100BA000800337D560680028E1D033E06068B0F595
:100BB000803F10D0B0F5A02F286810D020F48030EE
:100BC0002860286820F4802028606068A8B1FFF7BA
:100BD0003FFE06460DE0286840F48030F4E740F41C
:100BE00080202860F7E700BFFFF732FE801B6428F3
:100BF00073D828688003F7D50CE0FFF729FE064676
:100C000005E000BFFFF724FE801B6428F0D82868A9
:100C10008003F7D42078DFF89C8280074FF0000A29
:100C20003ED5A348001D016811F00C0F08D00068E4
:100C3000C0F3810002280BD1D9F80000400207D48C
:100C40002868800716D5E068012800D112E02BE162
:100C5000E068B8B10120C8F80000FFF7F9FD0646CA
:100C600005E000BFFFF7F4FD801B0228C0D828680C
:100C70008007F7D52868216920F0F80040EAC10014
:100C800028600DE0C8F800A0FFF7E2FD064604E08A
:100C9000FFF7DEFD801B02281FD828688007F7D4E5
:100CA0002078000722D5824E83486169703671B181
:100CB00001210160FFF7CCFD074604E0FFF7C8FD06
:100CC000C01B022809D830688007F7D50EE0C0F8AD
:100CD00000A0FFF7BDFD074605E082E0FFF7B8FD85
:100CE000C01B02287DD830688007F7D420784007E1
:100CF00068D5DFF8BCB100270BF13C0BDBF8000036
:100D0000C0000BD4DBF8001041F08051CBF800108C
:100D1000DBF80000012700F080500090674E30683B
:100D2000C00510D4306840F480703060FFF790FD4B
:100D3000009005E0FFF78CFD0099401A022850D87A
:100D40003068C005F6D55A4EA0686C3601280FD021
:100D50000528306810D020F001003060306820F0A5
:100D600004003060A068B8B1FFF772FD00900FE09A
:100D7000306840F00100F4E740F004003060F7E72D
:100D8000FFF766FD0099411A41F28830814266D82A
:100D900030688007F4D50EE0FFF75AFD009007E0B9
:100DA000FFF756FD0099411A41F28830814256D82A
:100DB00030688007F4D42FB1DBF8001021F08051A7
:100DC000CBF80010A069C8B33949091D0968C1F3FF
:100DD000810102294AD00228504607D0C8F8600095
:100DE00000E03CE0FFF734FD04463BE04746C8F82E
:100DF0006000FFF72DFD064605E000BFFFF728FD68
:100E0000801B02282BD828688001F7D4D4E9070179
:100E10000843A16A2A4A490802EB0141626A41EA91
:100E20008211084394F82C1040EA0161C9F80010BF
:100E300001203866FFF70CFD044606E036E000BFEF
:100E4000FFF706FD001B022809D828688001F7D5A6
:100E50002CE000BFFFF7FCFC001B022802D9032096
:100E6000BDE8F88F28688001F4D41FE00128F7D08E
:100E7000D9F80000E26900F48001914214D1226A9D
:100E800000F03F0191420FD147F6C071626A014004
:100E9000914209D1A26A00F44031914204D1E16A41
:100EA00000F07060884201D00120D9E70020D7E728
:100EB0000438024000004742800E47420070004064
:100EC0000000FFFF10B5401EB0F1807F01D301206C
:100ED00010BD4FF0E02460610F21601700F013FB9C
:100EE0000020A06107202061002010BD704770B570
:100EF000040004D094F83900002510B106E0012068
:100F000070BD84F83850204600F022F8242084F880
:100F100039002068C16821F40051C160204600F00A
:100F20005DFA2068016921F49041016120684169FE
:100F300021F02A0141612068C16841F40051C1607B
:100F4000E563202084F8390084F83A00002070BD61
:100F5000F0B587B0064614216846FFF76BF92149C2
:100F6000306888423CD120480025016841F40031B6
:100F70000160006800F4003005901B4810380168DB
:100F800041F001010160006801A900F00100059035
:100F90000C2000900220032781E8A1000720049084
:100FA00069461248FFF772FB124C114820604FF05F
:100FB000006060604020C4E902050001C4E9040546
:100FC000A5610420E561C4E90850C4E90A7520461A
:100FD0002563FFF7ADFA08B1FFF7D8F93463A663CC
:100FE00007B0F0BD0044004040380240000002401D
:100FF000A06002408800002070B5044690F83900D7
:10100000202830D169B362B394F8380001282AD07F
:10101000012084F838002162A284E2840025E5637F
:10102000212084F83900236B1048D863236B1048C3
:101030001864236B0F48D864206B13460565266837
:10104000206B321DFFF7DEFA21686FF04000086068
:1010500084F838502068416941F0800141610020E6
:1010600070BD012070BD022070BD00007713000824
:10107000A51300082D13000870477047FEE7000015
:101080002DE9F04F87B014216846FFF7D3F8714877
:101090000024016841F010010160016801F01001B5
:1010A0000591016841F004010160016801F004014B
:1010B0000591016841F080010160016801F0800143
:1010C0000591016841F001010160016801F0010131
:1010D0000591016841F002010160016801F002011F
:1010E0000591016841F0080101600068002200F0EC
:1010F0000800059008215848FFF7A4FB012211467B
:101100005648FFF79FFB4FF2100A00225146544801
:10111000FFF798FB082501260095CDE90164694693
:101120004D480394FFF7B2FA0096CDE90164694691
:101130004A480394FFF7AAFA00950225CDE9015425
:101140000527CDE9034769464448FFF79FFA45481C
:101150000096CDE90104DFF810B169465846FFF763
:1011600095FA10200090CDE901544FF00608CDE922
:10117000034869465846FFF789FAE0200090CDE918
:101180000154CDE9034769465846FFF77FFA4FF00F
:101190000409CDE90094694634480294FFF776FAD1
:1011A00068020090CDE90154CDE9034769462F4814
:1011B000FFF76CFACDF800A0CDE901646946284834
:1011C0000394FFF763FA4FF4A4500090CDE9015463
:1011D000CDE9034869462148FFF758FA2802CDE9CE
:1011E0000004694658460294FFF750FA4FF4E05065
:1011F0000090CDE901540A20CDE9034069465846E4
:10120000FFF744FA2020CDE900046946144802940F
:10121000FFF73CFA4FF4107000901220CDE9010660
:10122000CDE9034969461148FFF730FA10480095A7
:10123000CDE9010469460848FFF728FA0022114663
:101240000620FFF775FB0620FFF764FB07B0BDE83B
:10125000F08F0000303802400010024000080240C9
:10126000000C024000001110000002400004024087
:1012700000001210FEE7FEE770477047FFF7EEBA76
:1012800030B593B030216846FEF7D4FF14210CA886
:10129000FEF7D0FF1C480025016841F08051016035
:1012A000006800F0805011901848016841F48041B6
:1012B00001600068022400F4804011900120039036
:1012C00010200490009406940820CDE90750542083
:1012D000CDE9090407200B906846FFF745FC08B1EB
:1012E00072B6FEE70CA90F2081E831004FF4805060
:1012F0000F90109002210CA8FFF74CFB002801D0A2
:1013000072B6FEE713B030BD4038024000700040B6
:101310000548016841F47001016003494FF0006025
:10132000803908607047000088ED00E070B5846B7C
:101330002068406994F83910C0F3C01000252129B5
:1013400004D118B1E584204600F03FF820684069D8
:1013500094F83A10C0F38010222904D118B1E58521
:10136000204600F024F8E06B40F01000E0632046D7
:10137000FFF7BCFD70BD10B50146806B09680968B8
:10138000C9050CD40021C18401684A6922F0800299
:101390004A610068C16841F04001C16010BDFFF7BB
:1013A0006BFE10BD10B5806BFFF767FE10BD0168C6
:1013B000CA6822F49072CA6001684A6922F0010288
:1013C0004A61202180F83A1070470168CA6822F00B
:1013D000C002CA60202180F8391070472DE9F04121
:1013E000044600680169E26821F44051114301613B
:1013F0002169A068E26908436169114308432168D3
:10140000CA6849F20C639A430243CA602068416982
:10141000A26921F4407111434161E06919276425F3
:101420003226B0F5004F354A354920684FF00008A4
:1014300006D0884201D0904236D1FFF755FB35E007
:10144000884201D0904202D1FFF74EFB01E0FFF746
:101450003BFB61684A18A0FB070148EB0803FEF755
:10146000B1FE0146B0FBF5F00201B1FBF5F06FF003
:101470001803584301EB800006EBC000B0FBF5F009
:1014800000F0F80002EB4002B1FBF5F0584301EB2D
:10149000800006EBC000B0FBF5F000F0070021680B
:1014A00010448860BDE8F081FFF70EFB61688B0F88
:1014B0008A00A0FB0701FEF785FE0146B0FBF5F0B0
:1014C0006FF01802504301EB800006EB0010B0FBF8
:1014D000F5F000F0F002B1FBF5F002EB0012B1FB09
:1014E000F5F06FF01803584301EB800006EB001095
:1014F000B0FBF5F000F00F00D1E700000014014050
:1015000000100140FEE70907090E002804DB00F186
:10151000E02080F80014704700F00F0000F1E02098
:1015200080F8141D704702E008C8121F08C1002A85
:10153000FAD170477047002001E001C1121F002A54
:10154000FBD1704708B5FFF791F9FFF799FEFFF758
:1015500097FD12480024016841F400110160006801
:10156000224600F40010009021461120FFF7E0F918
:101570001120FFF7CFF90B48094901604FF4E13121
:10158000C0E901140C21C460C0E904418461C46154
:10159000FFF7ADFC08B172B6FEE7FEE73038024057
:1015A00000440040480000200006101600061016F7
:1015B0000000000000000000010203040607080903
:1015C0000000000001020304E815000800000020EC
:1015D00048000000261500083016000848000020CA
:1015E000A0040000361500082048656C6C6F204888
:1015F0006F772061726520796F7520646F696E67FF
:101600003F4920616D20646F696E6720676F6F646A
:101610002061732077656C6C090A000033000000BC
:101620000100000010000000000000000024F40091
:040000050800018965
:00000001FF
